{
  "_format": "hh-sol-artifact-1",
  "contractName": "AnonAadhaarPolicyFactory",
  "sourceName": "@excubiae/contracts/contracts/extensions/anonAadhaar/AnonAadhaarPolicyFactory.sol",
  "abi": [
    {
      "inputs": [],
      "stateMutability": "nonpayable",
      "type": "constructor"
    },
    {
      "anonymous": false,
      "inputs": [
        {
          "indexed": true,
          "internalType": "address",
          "name": "clone",
          "type": "address"
        }
      ],
      "name": "CloneDeployed",
      "type": "event"
    },
    {
      "inputs": [],
      "name": "IMPLEMENTATION",
      "outputs": [
        {
          "internalType": "address",
          "name": "",
          "type": "address"
        }
      ],
      "stateMutability": "view",
      "type": "function"
    },
    {
      "inputs": [
        {
          "internalType": "address",
          "name": "checkerAddress",
          "type": "address"
        }
      ],
      "name": "deploy",
      "outputs": [
        {
          "internalType": "address",
          "name": "clone",
          "type": "address"
        }
      ],
      "stateMutability": "nonpayable",
      "type": "function"
    }
  ],
  "bytecode": "0x60a0604052348015600f57600080fd5b50604051601a906046565b604051809103906000f0801580156035573d6000803e3d6000fd5b506001600160a01b03166080526053565b6109e3806102e183390190565b60805161026d6100746000396000818160400152610123015261026d6000f3fe608060405234801561001057600080fd5b50600436106100365760003560e01c80633a4741bd1461003b5780634c96a3891461007e575b600080fd5b6100627f000000000000000000000000000000000000000000000000000000000000000081565b6040516001600160a01b03909116815260200160405180910390f35b61006261008c36600461020e565b604080513360208201526001600160a01b0383168183015281518082038301815260609091019091526000906100c18161011c565b9150816001600160a01b0316638129fc1c6040518163ffffffff1660e01b8152600401600060405180830381600087803b1580156100fe57600080fd5b505af1158015610112573d6000803e3d6000fd5b5050505050919050565b60006101487f000000000000000000000000000000000000000000000000000000000000000083610184565b6040519091506001600160a01b038216907f2158cde9935cbf85d0b02e02fbc315ad0be2f3f017a603a2ebeedead21b8d60b90600090a2919050565b600061019260008484610199565b9392505050565b600060405182518060438301826020870160045afa506e5af43d82803e903d91602b57fd5bf360238301528460148301528060881b74fe61002d3d81600a3d39f3363d3d373d3d3d363d730182526037810161ffd38210600b01830187f092505050806101925763301164256000526004601cfd5b60006020828403121561022057600080fd5b81356001600160a01b038116811461019257600080fdfea2646970667358221220ed102a309bc2dadba6f280fb4c1fa0e965eb23d4d171292eefdf4d87dc27b03e64736f6c634300081c003360806040523380602957604051631e4fbdf760e01b81526000600482015260240160405180910390fd5b6030816035565b50608e565b600080546001600160a01b03838116610100818102610100600160a81b0319851617855560405193049190911692909183917f8be0079c531659141344cd1fd0a4f28419497f9722a3daafe3b4186f6b6457e091a35050565b6109468061009d6000396000f3fe608060405234801561001057600080fd5b50600436106100b45760003560e01c80637e164204116100715780637e164204146101595780638129fc1c1461016c5780638da5cb5b14610174578063b41a4b191461018a578063ce343deb1461019f578063f2fde38b146101c657600080fd5b8063158ef93e146100b95780631e898ef1146100db57806367644aab146100f0578063715018a61461011357806372f7a0301461011b578063776d1a0114610146575b600080fd5b6000546100c69060ff1681565b60405190151581526020015b60405180910390f35b6100ee6100e93660046105f3565b6101d9565b005b6100c66100fe36600461067a565b60036020526000908152604090205460ff1681565b6100ee610214565b60015461012e906001600160a01b031681565b6040516001600160a01b0390911681526020016100d2565b6100ee610154366004610693565b610228565b60025461012e906001600160a01b031681565b6100ee6102cb565b60005461010090046001600160a01b031661012e565b6101926102d3565b6040516100d291906106fd565b60408051808201909152600b81526a20b737b720b0b23430b0b960a91b6020820152610192565b6100ee6101d4366004610693565b6102e2565b6001546001600160a01b0316331461020457604051631f492dbf60e21b815260040160405180910390fd5b61020f838383610325565b505050565b61021c610396565b61022660006103c9565b565b610230610396565b6001600160a01b0381166102575760405163d92e233d60e01b815260040160405180910390fd5b6001546001600160a01b0316156102815760405163e0f2d7b160e01b815260040160405180910390fd5b600180546001600160a01b0319166001600160a01b0383169081179091556040517f3bfb4bbf112628248058745a3c57e35b13369386e474b8e56c552f3063a4a19690600090a250565b610226610422565b60606102dd61047e565b905090565b6102ea610396565b6001600160a01b03811661031957604051631e4fbdf760e01b8152600060048201526024015b60405180910390fd5b610322816103c9565b50565b600061033382840184610792565b5050506000828152600360205260409020549193505060ff1615905061036c57604051633440c93360e21b815260040160405180910390fd5b6000818152600360205260409020805460ff19166001179055610390848484610489565b50505050565b6000546001600160a01b036101009091041633146102265760405163118cdaa760e01b8152336004820152602401610310565b600080546001600160a01b03838116610100818102610100600160a81b0319851617855560405193049190911692909183917f8be0079c531659141344cd1fd0a4f28419497f9722a3daafe3b4186f6b6457e091a35050565b61042a61056c565b600061043461047e565b90506000808280602001905181019061044d9190610841565b9150915061045a826103c9565b600280546001600160a01b0319166001600160a01b03929092169190911790555050565b60606102dd3061057d565b60025460405163e2b2408560e01b81526001600160a01b039091169063e2b24085906104bd908690869086906004016108a4565b602060405180830381865afa1580156104da573d6000803e3d6000fd5b505050506040513d601f19601f820116820180604052508101906104fe91906108d2565b61051b57604051634715494560e01b815260040160405180910390fd5b6001546040516001600160a01b03918216918516907fc013b39287cb7a53f776482ac9573829321f002f31ef8782129b41d60047bda09061055f90869086906108f4565b60405180910390a3505050565b6105746105ac565b610226336103c9565b60405164ffffffffff602c19833b0116808252602090810190602d908301843c60408101815101604052919050565b60005460ff16156105cf5760405162dc149f60e41b815260040160405180910390fd5b6000805460ff19166001179055565b6001600160a01b038116811461032257600080fd5b60008060006040848603121561060857600080fd5b8335610613816105de565b9250602084013567ffffffffffffffff81111561062f57600080fd5b8401601f8101861361064057600080fd5b803567ffffffffffffffff81111561065757600080fd5b86602082840101111561066957600080fd5b939660209190910195509293505050565b60006020828403121561068c57600080fd5b5035919050565b6000602082840312156106a557600080fd5b81356106b0816105de565b9392505050565b6000815180845260005b818110156106dd576020818501810151868301820152016106c1565b506000602082860101526020601f19601f83011685010191505092915050565b6020815260006106b060208301846106b7565b604051601f8201601f1916810167ffffffffffffffff8111828210171561074757634e487b7160e01b600052604160045260246000fd5b604052919050565b600061010061075d81610710565b91508201818482111561076f57600080fd5b835b82811015610789578035825260209182019101610771565b50505092915050565b60008060008060008061020087890312156107ac57600080fd5b863595506020870135945060408701359350606087013592506000609f880189136107d5578081fd5b806107e06080610710565b905080915061010089018a8111156107f757600080fd5b60808a015b818110156108145780358452602093840193016107fc565b508194508a61011f8b011261082857600080fd5b6108328b8261074f565b93505050509295509295509295565b6000806040838503121561085457600080fd5b825161085f816105de565b6020840151909250610870816105de565b809150509250929050565b81835281816020850137506000828201602090810191909152601f909101601f19169091010190565b6001600160a01b03841681526040602082018190526000906108c9908301848661087b565b95945050505050565b6000602082840312156108e457600080fd5b815180151581146106b057600080fd5b60208152600061090860208301848661087b565b94935050505056fea264697066735822122097d20d8e2190a83f962a95a66c1fdd630d216189f9cd4ba4995db1ee194661ae64736f6c634300081c0033",
  "linkReferences": {},
  "deployedLinkReferences": {}
}