{
  "_format": "hh-sol-artifact-1",
  "contractName": "SemaphorePolicy",
  "sourceName": "@excubiae/contracts/contracts/extensions/semaphore/SemaphorePolicy.sol",
  "abi": [
    {
      "inputs": [],
      "stateMutability": "payable",
      "type": "constructor"
    },
    {
      "inputs": [],
      "name": "AlreadyEnforced",
      "type": "error"
    },
    {
      "inputs": [],
      "name": "AlreadyInitialized",
      "type": "error"
    },
    {
      "inputs": [
        {
          "internalType": "address",
          "name": "owner",
          "type": "address"
        }
      ],
      "name": "OwnableInvalidOwner",
      "type": "error"
    },
    {
      "inputs": [
        {
          "internalType": "address",
          "name": "account",
          "type": "address"
        }
      ],
      "name": "OwnableUnauthorizedAccount",
      "type": "error"
    },
    {
      "inputs": [],
      "name": "TargetAlreadySet",
      "type": "error"
    },
    {
      "inputs": [],
      "name": "TargetNotSet",
      "type": "error"
    },
    {
      "inputs": [],
      "name": "TargetOnly",
      "type": "error"
    },
    {
      "inputs": [],
      "name": "UnsuccessfulCheck",
      "type": "error"
    },
    {
      "inputs": [],
      "name": "ZeroAddress",
      "type": "error"
    },
    {
      "anonymous": false,
      "inputs": [
        {
          "indexed": true,
          "internalType": "address",
          "name": "subject",
          "type": "address"
        },
        {
          "indexed": true,
          "internalType": "address",
          "name": "guarded",
          "type": "address"
        },
        {
          "indexed": false,
          "internalType": "bytes",
          "name": "evidence",
          "type": "bytes"
        }
      ],
      "name": "Enforced",
      "type": "event"
    },
    {
      "anonymous": false,
      "inputs": [
        {
          "indexed": true,
          "internalType": "address",
          "name": "previousOwner",
          "type": "address"
        },
        {
          "indexed": true,
          "internalType": "address",
          "name": "newOwner",
          "type": "address"
        }
      ],
      "name": "OwnershipTransferred",
      "type": "event"
    },
    {
      "anonymous": false,
      "inputs": [
        {
          "indexed": true,
          "internalType": "address",
          "name": "guarded",
          "type": "address"
        }
      ],
      "name": "TargetSet",
      "type": "event"
    },
    {
      "inputs": [],
      "name": "BASE_CHECKER",
      "outputs": [
        {
          "internalType": "contract BaseChecker",
          "name": "",
          "type": "address"
        }
      ],
      "stateMutability": "view",
      "type": "function"
    },
    {
      "inputs": [
        {
          "internalType": "address",
          "name": "subject",
          "type": "address"
        },
        {
          "internalType": "bytes",
          "name": "evidence",
          "type": "bytes"
        }
      ],
      "name": "enforce",
      "outputs": [],
      "stateMutability": "nonpayable",
      "type": "function"
    },
    {
      "inputs": [],
      "name": "getAppendedBytes",
      "outputs": [
        {
          "internalType": "bytes",
          "name": "appendedBytes",
          "type": "bytes"
        }
      ],
      "stateMutability": "view",
      "type": "function"
    },
    {
      "inputs": [],
      "name": "guarded",
      "outputs": [
        {
          "internalType": "address",
          "name": "",
          "type": "address"
        }
      ],
      "stateMutability": "view",
      "type": "function"
    },
    {
      "inputs": [],
      "name": "initialize",
      "outputs": [],
      "stateMutability": "nonpayable",
      "type": "function"
    },
    {
      "inputs": [],
      "name": "initialized",
      "outputs": [
        {
          "internalType": "bool",
          "name": "",
          "type": "bool"
        }
      ],
      "stateMutability": "view",
      "type": "function"
    },
    {
      "inputs": [],
      "name": "owner",
      "outputs": [
        {
          "internalType": "address",
          "name": "",
          "type": "address"
        }
      ],
      "stateMutability": "view",
      "type": "function"
    },
    {
      "inputs": [],
      "name": "renounceOwnership",
      "outputs": [],
      "stateMutability": "nonpayable",
      "type": "function"
    },
    {
      "inputs": [
        {
          "internalType": "address",
          "name": "_guarded",
          "type": "address"
        }
      ],
      "name": "setTarget",
      "outputs": [],
      "stateMutability": "nonpayable",
      "type": "function"
    },
    {
      "inputs": [
        {
          "internalType": "uint256",
          "name": "",
          "type": "uint256"
        }
      ],
      "name": "spentNullifiers",
      "outputs": [
        {
          "internalType": "bool",
          "name": "",
          "type": "bool"
        }
      ],
      "stateMutability": "view",
      "type": "function"
    },
    {
      "inputs": [],
      "name": "trait",
      "outputs": [
        {
          "internalType": "string",
          "name": "",
          "type": "string"
        }
      ],
      "stateMutability": "pure",
      "type": "function"
    },
    {
      "inputs": [
        {
          "internalType": "address",
          "name": "newOwner",
          "type": "address"
        }
      ],
      "name": "transferOwnership",
      "outputs": [],
      "stateMutability": "nonpayable",
      "type": "function"
    }
  ],
  "bytecode": "0x60806040523380602957604051631e4fbdf760e01b81526000600482015260240160405180910390fd5b6030816035565b50608e565b600080546001600160a01b03838116610100818102610100600160a81b0319851617855560405193049190911692909183917f8be0079c531659141344cd1fd0a4f28419497f9722a3daafe3b4186f6b6457e091a35050565b6109188061009d6000396000f3fe608060405234801561001057600080fd5b50600436106100b45760003560e01c8063811608fd11610071578063811608fd146101495780638129fc1c1461016c5780638da5cb5b14610174578063b41a4b191461018a578063ce343deb1461019f578063f2fde38b146101c457600080fd5b8063158ef93e146100b95780631e898ef1146100db578063715018a6146100f057806372f7a030146100f8578063776d1a01146101235780637e16420414610136575b600080fd5b6000546100c69060ff1681565b60405190151581526020015b60405180910390f35b6100ee6100e93660046105f3565b6101d7565b005b6100ee610212565b60015461010b906001600160a01b031681565b6040516001600160a01b0390911681526020016100d2565b6100ee61013136600461067a565b610226565b60025461010b906001600160a01b031681565b6100c661015736600461069e565b60036020526000908152604090205460ff1681565b6100ee6102c9565b60005461010090046001600160a01b031661010b565b6101926102d1565b6040516100d291906106fd565b60408051808201909152600981526853656d6170686f726560b81b6020820152610192565b6100ee6101d236600461067a565b6102e0565b6001546001600160a01b0316331461020257604051631f492dbf60e21b815260040160405180910390fd5b61020d838383610323565b505050565b61021a610396565b61022460006103c9565b565b61022e610396565b6001600160a01b0381166102555760405163d92e233d60e01b815260040160405180910390fd5b6001546001600160a01b03161561027f5760405163e0f2d7b160e01b815260040160405180910390fd5b600180546001600160a01b0319166001600160a01b0383169081179091556040517f3bfb4bbf112628248058745a3c57e35b13369386e474b8e56c552f3063a4a19690600090a250565b610224610422565b60606102db61047e565b905090565b6102e8610396565b6001600160a01b03811661031757604051631e4fbdf760e01b8152600060048201526024015b60405180910390fd5b610320816103c9565b50565b600061033182840184610773565b6040808201516000818152600360205291909120549192509060ff161561036b57604051633440c93360e21b815260040160405180910390fd5b6000818152600360205260409020805460ff1916600117905561038f858585610489565b5050505050565b6000546001600160a01b036101009091041633146102245760405163118cdaa760e01b815233600482015260240161030e565b600080546001600160a01b03838116610100818102610100600160a81b0319851617855560405193049190911692909183917f8be0079c531659141344cd1fd0a4f28419497f9722a3daafe3b4186f6b6457e091a35050565b61042a61056c565b600061043461047e565b90506000808280602001905181019061044d9190610813565b9150915061045a826103c9565b600280546001600160a01b0319166001600160a01b03929092169190911790555050565b60606102db3061057d565b60025460405163e2b2408560e01b81526001600160a01b039091169063e2b24085906104bd90869086908690600401610876565b602060405180830381865afa1580156104da573d6000803e3d6000fd5b505050506040513d601f19601f820116820180604052508101906104fe91906108a4565b61051b57604051634715494560e01b815260040160405180910390fd5b6001546040516001600160a01b03918216918516907fc013b39287cb7a53f776482ac9573829321f002f31ef8782129b41d60047bda09061055f90869086906108c6565b60405180910390a3505050565b6105746105ac565b610224336103c9565b60405164ffffffffff602c19833b0116808252602090810190602d908301843c60408101815101604052919050565b60005460ff16156105cf5760405162dc149f60e41b815260040160405180910390fd5b6000805460ff19166001179055565b6001600160a01b038116811461032057600080fd5b60008060006040848603121561060857600080fd5b8335610613816105de565b9250602084013567ffffffffffffffff81111561062f57600080fd5b8401601f8101861361064057600080fd5b803567ffffffffffffffff81111561065757600080fd5b86602082840101111561066957600080fd5b939660209190910195509293505050565b60006020828403121561068c57600080fd5b8135610697816105de565b9392505050565b6000602082840312156106b057600080fd5b5035919050565b6000815180845260005b818110156106dd576020818501810151868301820152016106c1565b506000602082860101526020601f19601f83011685010191505092915050565b60208152600061069760208301846106b7565b634e487b7160e01b600052604160045260246000fd5b60405160c0810167ffffffffffffffff8111828210171561074957610749610710565b60405290565b604051610100810167ffffffffffffffff8111828210171561074957610749610710565b60006101a082840312801561078757600080fd5b506000610792610726565b833581526020808501359082015260408085013590820152606080850135908201526080808501359082015260bf840185136107cc578182fd5b6107d461074f565b806101a08601878111156107e6578485fd5b60a087015b818110156108035780358452602093840193016107eb565b505060a083015250949350505050565b6000806040838503121561082657600080fd5b8251610831816105de565b6020840151909250610842816105de565b809150509250929050565b81835281816020850137506000828201602090810191909152601f909101601f19169091010190565b6001600160a01b038416815260406020820181905260009061089b908301848661084d565b95945050505050565b6000602082840312156108b657600080fd5b8151801515811461069757600080fd5b6020815260006108da60208301848661084d565b94935050505056fea2646970667358221220614bd3826ae6a56e5f5ffb5df207ad5aa9f63d5c2f7568477b9a0faf0d78a1e564736f6c634300081c0033",
  "linkReferences": {},
  "deployedLinkReferences": {}
}