{
  "_format": "hh-sol-artifact-1",
  "contractName": "EASCheckerFactory",
  "sourceName": "@excubiae/contracts/contracts/extensions/eas/EASCheckerFactory.sol",
  "abi": [
    {
      "inputs": [],
      "stateMutability": "nonpayable",
      "type": "constructor"
    },
    {
      "anonymous": false,
      "inputs": [
        {
          "indexed": true,
          "internalType": "address",
          "name": "clone",
          "type": "address"
        }
      ],
      "name": "CloneDeployed",
      "type": "event"
    },
    {
      "inputs": [],
      "name": "IMPLEMENTATION",
      "outputs": [
        {
          "internalType": "address",
          "name": "",
          "type": "address"
        }
      ],
      "stateMutability": "view",
      "type": "function"
    },
    {
      "inputs": [
        {
          "internalType": "address",
          "name": "eas",
          "type": "address"
        },
        {
          "internalType": "address",
          "name": "attester",
          "type": "address"
        },
        {
          "internalType": "bytes32",
          "name": "schema",
          "type": "bytes32"
        }
      ],
      "name": "deploy",
      "outputs": [
        {
          "internalType": "address",
          "name": "clone",
          "type": "address"
        }
      ],
      "stateMutability": "nonpayable",
      "type": "function"
    }
  ],
  "bytecode": "0x60a0604052348015600f57600080fd5b50604051601a906046565b604051809103906000f0801580156035573d6000803e3d6000fd5b506001600160a01b03166080526053565b61072b8061031d83390190565b6080516102a9610074600039600081816040015261013001526102a96000f3fe608060405234801561001057600080fd5b50600436106100365760003560e01c80633a4741bd1461003b578063b03110791461007e575b600080fd5b6100627f000000000000000000000000000000000000000000000000000000000000000081565b6040516001600160a01b03909116815260200160405180910390f35b61006261008c366004610237565b604080516001600160a01b03858116602083015284168183015260608082018490528251808303909101815260809091019091526000906100cc81610129565b9150816001600160a01b0316638129fc1c6040518163ffffffff1660e01b8152600401600060405180830381600087803b15801561010957600080fd5b505af115801561011d573d6000803e3d6000fd5b50505050509392505050565b60006101557f000000000000000000000000000000000000000000000000000000000000000083610191565b6040519091506001600160a01b038216907f2158cde9935cbf85d0b02e02fbc315ad0be2f3f017a603a2ebeedead21b8d60b90600090a2919050565b600061019f600084846101a6565b9392505050565b600060405182518060438301826020870160045afa506e5af43d82803e903d91602b57fd5bf360238301528460148301528060881b74fe61002d3d81600a3d39f3363d3d373d3d3d363d730182526037810161ffd38210600b01830187f0925050508061019f5763301164256000526004601cfd5b80356001600160a01b038116811461023257600080fd5b919050565b60008060006060848603121561024c57600080fd5b6102558461021b565b92506102636020850161021b565b915060408401359050925092509256fea2646970667358221220e8a3ccc69a0cadcd9cc18a4d6bd98169622aaa6f7134812397ae46a57df7503464736f6c634300081c00336080604052348015600f57600080fd5b5061070c8061001f6000396000f3fe608060405234801561001057600080fd5b506004361061007d5760003560e01c80638150864d1161005b5780638150864d146100d9578063b41a4b19146100f1578063e2b2408514610106578063f8895cc81461011957600080fd5b8063158ef93e1461008257806347b0c3b3146100a45780638129fc1c146100cf575b600080fd5b60005461008f9060ff1681565b60405190151581526020015b60405180910390f35b6002546100b7906001600160a01b031681565b6040516001600160a01b03909116815260200161009b565b6100d7610130565b005b6000546100b79061010090046001600160a01b031681565b6100f961013a565b60405161009b91906103b2565b61008f6101143660046103fd565b610149565b61012260015481565b60405190815260200161009b565b61013861015e565b565b60606101446101ce565b905090565b60006101568484846101d9565b949350505050565b61016661032d565b60006101706101ce565b905060008060008380602001905181019061018b9190610484565b60008054610100600160a81b0319166101006001600160a01b0395861602179055600280546001600160a01b031916929093169190911790915560015550505050565b60606101443061035f565b6000806101e8838501856104c8565b600080546040516328c44a9960e21b81526004810184905292935090916101009091046001600160a01b03169063a3112a6490602401600060405180830381865afa15801561023b573d6000803e3d6000fd5b505050506040513d6000823e601f3d908101601f1916820160405261026391908101906105dc565b905060015481602001511461028b57604051635f9bd90760e11b815260040160405180910390fd5b60025460e08201516001600160a01b039081169116146102be5760405163cd74a32b60e01b815260040160405180910390fd5b608081015167ffffffffffffffff16156102eb57604051637b6227e960e11b815260040160405180910390fd5b856001600160a01b03168160c001516001600160a01b03161461032157604051633f97208360e11b815260040160405180910390fd5b50600195945050505050565b60005460ff16156103505760405162dc149f60e41b815260040160405180910390fd5b6000805460ff19166001179055565b60405164ffffffffff602c19833b0116808252602090810190602d908301843c60408101815101604052919050565b60005b838110156103a9578181015183820152602001610391565b50506000910152565b60208152600082518060208401526103d181604085016020870161038e565b601f01601f19169190910160400192915050565b6001600160a01b03811681146103fa57600080fd5b50565b60008060006040848603121561041257600080fd5b833561041d816103e5565b9250602084013567ffffffffffffffff81111561043957600080fd5b8401601f8101861361044a57600080fd5b803567ffffffffffffffff81111561046157600080fd5b86602082840101111561047357600080fd5b939660209190910195509293505050565b60008060006060848603121561049957600080fd5b83516104a4816103e5565b60208501519093506104b5816103e5565b6040949094015192959394509192915050565b6000602082840312156104da57600080fd5b5035919050565b634e487b7160e01b600052604160045260246000fd5b604051610140810167ffffffffffffffff8111828210171561051b5761051b6104e1565b60405290565b805167ffffffffffffffff8116811461053957600080fd5b919050565b8051610539816103e5565b8051801515811461053957600080fd5b600082601f83011261056a57600080fd5b815167ffffffffffffffff811115610584576105846104e1565b604051601f8201601f19908116603f0116810167ffffffffffffffff811182821017156105b3576105b36104e1565b6040528181528382016020018510156105cb57600080fd5b61015682602083016020870161038e565b6000602082840312156105ee57600080fd5b815167ffffffffffffffff81111561060557600080fd5b8201610140818503121561061857600080fd5b6106206104f7565b815181526020808301519082015261063a60408301610521565b604082015261064b60608301610521565b606082015261065c60808301610521565b608082015260a0828101519082015261067760c0830161053e565b60c082015261068860e0830161053e565b60e082015261069a6101008301610549565b61010082015261012082015167ffffffffffffffff8111156106bb57600080fd5b6106c786828501610559565b6101208301525094935050505056fea264697066735822122063346c72a5946266d80557e5a890d70b0e279551d67f1b702d09d721a6c4092364736f6c634300081c0033",
  "linkReferences": {},
  "deployedLinkReferences": {}
}