{
  "_format": "hh-sol-artifact-1",
  "contractName": "TokenChecker",
  "sourceName": "@excubiae/contracts/contracts/extensions/token/TokenChecker.sol",
  "abi": [
    {
      "inputs": [],
      "name": "AlreadyInitialized",
      "type": "error"
    },
    {
      "inputs": [],
      "name": "NotTokenOwner",
      "type": "error"
    },
    {
      "inputs": [
        {
          "internalType": "address",
          "name": "subject",
          "type": "address"
        },
        {
          "internalType": "bytes",
          "name": "evidence",
          "type": "bytes"
        }
      ],
      "name": "check",
      "outputs": [
        {
          "internalType": "bool",
          "name": "checked",
          "type": "bool"
        }
      ],
      "stateMutability": "view",
      "type": "function"
    },
    {
      "inputs": [],
      "name": "getAppendedBytes",
      "outputs": [
        {
          "internalType": "bytes",
          "name": "appendedBytes",
          "type": "bytes"
        }
      ],
      "stateMutability": "view",
      "type": "function"
    },
    {
      "inputs": [],
      "name": "initialize",
      "outputs": [],
      "stateMutability": "nonpayable",
      "type": "function"
    },
    {
      "inputs": [],
      "name": "initialized",
      "outputs": [
        {
          "internalType": "bool",
          "name": "",
          "type": "bool"
        }
      ],
      "stateMutability": "view",
      "type": "function"
    },
    {
      "inputs": [],
      "name": "token",
      "outputs": [
        {
          "internalType": "contract ERC721",
          "name": "",
          "type": "address"
        }
      ],
      "stateMutability": "view",
      "type": "function"
    }
  ],
  "bytecode": "0x6080604052348015600f57600080fd5b506103e78061001f6000396000f3fe608060405234801561001057600080fd5b50600436106100575760003560e01c8063158ef93e1461005c5780638129fc1c1461007e578063b41a4b1914610088578063e2b240851461009d578063fc0c546a146100b0575b600080fd5b6000546100699060ff1681565b60405190151581526020015b60405180910390f35b6100866100e0565b005b6100906100ea565b6040516100759190610287565b6100696100ab3660046102ed565b6100f9565b6000546100c89061010090046001600160a01b031681565b6040516001600160a01b039091168152602001610075565b6100e861010e565b565b60606100f4610162565b905090565b600061010684848461016d565b949350505050565b610116610226565b6000610120610162565b90506000818060200190518101906101389190610374565b600080546001600160a01b0390921661010002610100600160a81b03199092169190911790555050565b60606100f430610258565b60008061017c83850185610398565b6000546040516331a9108f60e11b8152600481018390529192506001600160a01b03878116926101009092041690636352211e90602401602060405180830381865afa1580156101d0573d6000803e3d6000fd5b505050506040513d601f19601f820116820180604052508101906101f49190610374565b6001600160a01b03161461021b576040516359dc379f60e01b815260040160405180910390fd5b506001949350505050565b60005460ff16156102495760405162dc149f60e41b815260040160405180910390fd5b6000805460ff19166001179055565b60405164ffffffffff602c19833b0116808252602090810190602d908301843c60408101815101604052919050565b602081526000825180602084015260005b818110156102b55760208186018101516040868401015201610298565b506000604082850101526040601f19601f83011684010191505092915050565b6001600160a01b03811681146102ea57600080fd5b50565b60008060006040848603121561030257600080fd5b833561030d816102d5565b9250602084013567ffffffffffffffff81111561032957600080fd5b8401601f8101861361033a57600080fd5b803567ffffffffffffffff81111561035157600080fd5b86602082840101111561036357600080fd5b939660209190910195509293505050565b60006020828403121561038657600080fd5b8151610391816102d5565b9392505050565b6000602082840312156103aa57600080fd5b503591905056fea26469706673582212203a4f652160f100d442253253a63704446a5c745f8f9b69210ae6c26ffff7520c64736f6c634300081c0033",
  "linkReferences": {},
  "deployedLinkReferences": {}
}