{
  "_format": "hh-sol-artifact-1",
  "contractName": "GitcoinPassportCheckerFactory",
  "sourceName": "@excubiae/contracts/contracts/extensions/gitcoin/GitcoinPassportCheckerFactory.sol",
  "abi": [
    {
      "inputs": [],
      "stateMutability": "nonpayable",
      "type": "constructor"
    },
    {
      "anonymous": false,
      "inputs": [
        {
          "indexed": true,
          "internalType": "address",
          "name": "clone",
          "type": "address"
        }
      ],
      "name": "CloneDeployed",
      "type": "event"
    },
    {
      "inputs": [],
      "name": "IMPLEMENTATION",
      "outputs": [
        {
          "internalType": "address",
          "name": "",
          "type": "address"
        }
      ],
      "stateMutability": "view",
      "type": "function"
    },
    {
      "inputs": [
        {
          "internalType": "address",
          "name": "passportDecoder",
          "type": "address"
        },
        {
          "internalType": "uint256",
          "name": "thresholdScore",
          "type": "uint256"
        }
      ],
      "name": "deploy",
      "outputs": [
        {
          "internalType": "address",
          "name": "clone",
          "type": "address"
        }
      ],
      "stateMutability": "nonpayable",
      "type": "function"
    }
  ],
  "bytecode": "0x60a0604052348015600f57600080fd5b50604051601a906046565b604051809103906000f0801580156035573d6000803e3d6000fd5b506001600160a01b03166080526053565b610475806102f283390190565b60805161027e6100746000396000818160400152610125015261027e6000f3fe608060405234801561001057600080fd5b50600436106100365760003560e01c80633a4741bd1461003b5780634956eaf01461007e575b600080fd5b6100627f000000000000000000000000000000000000000000000000000000000000000081565b6040516001600160a01b03909116815260200160405180910390f35b61006261008c366004610210565b604080516001600160a01b038416602082015280820183905281518082038301815260609091019091526000906100c28161011e565b9150816001600160a01b0316638129fc1c6040518163ffffffff1660e01b8152600401600060405180830381600087803b1580156100ff57600080fd5b505af1158015610113573d6000803e3d6000fd5b505050505092915050565b600061014a7f000000000000000000000000000000000000000000000000000000000000000083610186565b6040519091506001600160a01b038216907f2158cde9935cbf85d0b02e02fbc315ad0be2f3f017a603a2ebeedead21b8d60b90600090a2919050565b60006101946000848461019b565b9392505050565b600060405182518060438301826020870160045afa506e5af43d82803e903d91602b57fd5bf360238301528460148301528060881b74fe61002d3d81600a3d39f3363d3d373d3d3d363d730182526037810161ffd38210600b01830187f092505050806101945763301164256000526004601cfd5b6000806040838503121561022357600080fd5b82356001600160a01b038116811461023a57600080fd5b94602093909301359350505056fea2646970667358221220dfc4707e95d3b331ecf57b4680529980d9e9eea76952418b99f1d0290b986a7864736f6c634300081c00336080604052348015600f57600080fd5b506104568061001f6000396000f3fe608060405234801561001057600080fd5b506004361061007d5760003560e01c80638129fc1c1161005b5780638129fc1c146100c3578063b41a4b19146100cd578063d237884e146100e2578063e2b240851461011257600080fd5b8063019d0bb414610082578063158ef93e1461009e57806335815b95146100bb575b600080fd5b61008b60015481565b6040519081526020015b60405180910390f35b6000546100ab9060ff1681565b6040519015158152602001610095565b61008b606481565b6100cb610125565b005b6100d561012f565b60405161009591906102ca565b6000546100fa9061010090046001600160a01b031681565b6040516001600160a01b039091168152602001610095565b6100ab610120366004610330565b61013e565b61012d610153565b565b60606101396101ad565b905090565b600061014b8484846101b8565b949350505050565b61015b610269565b60006101656101ad565b90506000808280602001905181019061017e91906103b7565b600080546001600160a01b0390931661010002610100600160a81b031990931692909217909155600155505050565b60606101393061029b565b6000808054604051630d47875d60e41b81526001600160a01b0387811660048301526101009092049091169063d47875d090602401602060405180830381865afa15801561020a573d6000803e3d6000fd5b505050506040513d601f19601f8201168201806040525081019061022e91906103e5565b60015490915061023f6064836103fe565b101561025e57604051630e94124b60e01b815260040160405180910390fd5b506001949350505050565b60005460ff161561028c5760405162dc149f60e41b815260040160405180910390fd5b6000805460ff19166001179055565b60405164ffffffffff602c19833b0116808252602090810190602d908301843c60408101815101604052919050565b602081526000825180602084015260005b818110156102f857602081860181015160408684010152016102db565b506000604082850101526040601f19601f83011684010191505092915050565b6001600160a01b038116811461032d57600080fd5b50565b60008060006040848603121561034557600080fd5b833561035081610318565b9250602084013567ffffffffffffffff81111561036c57600080fd5b8401601f8101861361037d57600080fd5b803567ffffffffffffffff81111561039457600080fd5b8660208284010111156103a657600080fd5b939660209190910195509293505050565b600080604083850312156103ca57600080fd5b82516103d581610318565b6020939093015192949293505050565b6000602082840312156103f757600080fd5b5051919050565b60008261041b57634e487b7160e01b600052601260045260246000fd5b50049056fea2646970667358221220688b9fd95c196dee4e9c61103a6a2998b6b3b2f4612411dce84b3789740358d464736f6c634300081c0033",
  "linkReferences": {},
  "deployedLinkReferences": {}
}