{
  "_format": "hh-sol-artifact-1",
  "contractName": "Pairing",
  "sourceName": "contracts/crypto/Pairing.sol",
  "abi": [
    {
      "inputs": [],
      "name": "PairingAddFailed",
      "type": "error"
    },
    {
      "inputs": [],
      "name": "PairingMulFailed",
      "type": "error"
    },
    {
      "inputs": [],
      "name": "PairingOpcodeFailed",
      "type": "error"
    },
    {
      "inputs": [],
      "name": "PRIME_Q",
      "outputs": [
        {
          "internalType": "uint256",
          "name": "",
          "type": "uint256"
        }
      ],
      "stateMutability": "view",
      "type": "function"
    }
  ],
  "bytecode": "0x60a66037600b82828239805160001a607314602a57634e487b7160e01b600052600060045260246000fd5b30600052607381538281f3fe730000000000000000000000000000000000000000301460806040526004361060335760003560e01c80638d532908146038575b600080fd5b605e7f30644e72e131a029b85045b68181585d97816a916871ca8d3c208c16d87cfd4781565b60405190815260200160405180910390f3fea2646970667358221220b24d133a1d9bb29329df9a0c7d266f7930bbbae68f709584710eec44dd3c592e64736f6c634300081c0033",
  "linkReferences": {},
  "deployedLinkReferences": {}
}