{
  "_format": "hh-sol-artifact-1",
  "contractName": "DomainObjs",
  "sourceName": "contracts/utilities/DomainObjs.sol",
  "abi": [
    {
      "inputs": [],
      "name": "MESSAGE_DATA_LENGTH",
      "outputs": [
        {
          "internalType": "uint8",
          "name": "",
          "type": "uint8"
        }
      ],
      "stateMutability": "view",
      "type": "function"
    }
  ],
  "bytecode": "0x6080604052348015600f57600080fd5b50608080601d6000396000f3fe6080604052348015600f57600080fd5b506004361060285760003560e01c8063683f3dc314602d575b600080fd5b6034600a81565b60405160ff909116815260200160405180910390f3fea26469706673582212204863607b64f6bb32e550ef5fb3ffea3f5d7aa5cbac0446b2d3a1257fce00a7c664736f6c634300081c0033",
  "linkReferences": {},
  "deployedLinkReferences": {}
}