{
  "_format": "hh-sol-artifact-1",
  "contractName": "EASPolicy",
  "sourceName": "@excubiae/contracts/contracts/extensions/eas/EASPolicy.sol",
  "abi": [
    {
      "inputs": [],
      "stateMutability": "payable",
      "type": "constructor"
    },
    {
      "inputs": [],
      "name": "AlreadyEnforced",
      "type": "error"
    },
    {
      "inputs": [],
      "name": "AlreadyInitialized",
      "type": "error"
    },
    {
      "inputs": [
        {
          "internalType": "address",
          "name": "owner",
          "type": "address"
        }
      ],
      "name": "OwnableInvalidOwner",
      "type": "error"
    },
    {
      "inputs": [
        {
          "internalType": "address",
          "name": "account",
          "type": "address"
        }
      ],
      "name": "OwnableUnauthorizedAccount",
      "type": "error"
    },
    {
      "inputs": [],
      "name": "TargetAlreadySet",
      "type": "error"
    },
    {
      "inputs": [],
      "name": "TargetNotSet",
      "type": "error"
    },
    {
      "inputs": [],
      "name": "TargetOnly",
      "type": "error"
    },
    {
      "inputs": [],
      "name": "UnsuccessfulCheck",
      "type": "error"
    },
    {
      "inputs": [],
      "name": "ZeroAddress",
      "type": "error"
    },
    {
      "anonymous": false,
      "inputs": [
        {
          "indexed": true,
          "internalType": "address",
          "name": "subject",
          "type": "address"
        },
        {
          "indexed": true,
          "internalType": "address",
          "name": "guarded",
          "type": "address"
        },
        {
          "indexed": false,
          "internalType": "bytes",
          "name": "evidence",
          "type": "bytes"
        }
      ],
      "name": "Enforced",
      "type": "event"
    },
    {
      "anonymous": false,
      "inputs": [
        {
          "indexed": true,
          "internalType": "address",
          "name": "previousOwner",
          "type": "address"
        },
        {
          "indexed": true,
          "internalType": "address",
          "name": "newOwner",
          "type": "address"
        }
      ],
      "name": "OwnershipTransferred",
      "type": "event"
    },
    {
      "anonymous": false,
      "inputs": [
        {
          "indexed": true,
          "internalType": "address",
          "name": "guarded",
          "type": "address"
        }
      ],
      "name": "TargetSet",
      "type": "event"
    },
    {
      "inputs": [],
      "name": "BASE_CHECKER",
      "outputs": [
        {
          "internalType": "contract BaseChecker",
          "name": "",
          "type": "address"
        }
      ],
      "stateMutability": "view",
      "type": "function"
    },
    {
      "inputs": [
        {
          "internalType": "address",
          "name": "subject",
          "type": "address"
        },
        {
          "internalType": "bytes",
          "name": "evidence",
          "type": "bytes"
        }
      ],
      "name": "enforce",
      "outputs": [],
      "stateMutability": "nonpayable",
      "type": "function"
    },
    {
      "inputs": [
        {
          "internalType": "bytes32",
          "name": "",
          "type": "bytes32"
        }
      ],
      "name": "enforcedAttestations",
      "outputs": [
        {
          "internalType": "bool",
          "name": "",
          "type": "bool"
        }
      ],
      "stateMutability": "view",
      "type": "function"
    },
    {
      "inputs": [],
      "name": "getAppendedBytes",
      "outputs": [
        {
          "internalType": "bytes",
          "name": "appendedBytes",
          "type": "bytes"
        }
      ],
      "stateMutability": "view",
      "type": "function"
    },
    {
      "inputs": [],
      "name": "guarded",
      "outputs": [
        {
          "internalType": "address",
          "name": "",
          "type": "address"
        }
      ],
      "stateMutability": "view",
      "type": "function"
    },
    {
      "inputs": [],
      "name": "initialize",
      "outputs": [],
      "stateMutability": "nonpayable",
      "type": "function"
    },
    {
      "inputs": [],
      "name": "initialized",
      "outputs": [
        {
          "internalType": "bool",
          "name": "",
          "type": "bool"
        }
      ],
      "stateMutability": "view",
      "type": "function"
    },
    {
      "inputs": [],
      "name": "owner",
      "outputs": [
        {
          "internalType": "address",
          "name": "",
          "type": "address"
        }
      ],
      "stateMutability": "view",
      "type": "function"
    },
    {
      "inputs": [],
      "name": "renounceOwnership",
      "outputs": [],
      "stateMutability": "nonpayable",
      "type": "function"
    },
    {
      "inputs": [
        {
          "internalType": "address",
          "name": "_guarded",
          "type": "address"
        }
      ],
      "name": "setTarget",
      "outputs": [],
      "stateMutability": "nonpayable",
      "type": "function"
    },
    {
      "inputs": [],
      "name": "trait",
      "outputs": [
        {
          "internalType": "string",
          "name": "",
          "type": "string"
        }
      ],
      "stateMutability": "pure",
      "type": "function"
    },
    {
      "inputs": [
        {
          "internalType": "address",
          "name": "newOwner",
          "type": "address"
        }
      ],
      "name": "transferOwnership",
      "outputs": [],
      "stateMutability": "nonpayable",
      "type": "function"
    }
  ],
  "bytecode": "0x60806040523380602957604051631e4fbdf760e01b81526000600482015260240160405180910390fd5b6030816035565b50608e565b600080546001600160a01b03838116610100818102610100600160a81b0319851617855560405193049190911692909183917f8be0079c531659141344cd1fd0a4f28419497f9722a3daafe3b4186f6b6457e091a35050565b6108078061009d6000396000f3fe608060405234801561001057600080fd5b50600436106100b45760003560e01c80637e164204116100715780637e164204146101595780638129fc1c1461016c5780638da5cb5b14610174578063b41a4b191461018a578063ce343deb1461019f578063f2fde38b146101be57600080fd5b8063158ef93e146100b957806319e4daed146100db5780631e898ef1146100fe578063715018a61461011357806372f7a0301461011b578063776d1a0114610146575b600080fd5b6000546100c69060ff1681565b60405190151581526020015b60405180910390f35b6100c66100e93660046105d0565b60036020526000908152604090205460ff1681565b61011161010c3660046105fe565b6101d1565b005b61011161020c565b60015461012e906001600160a01b031681565b6040516001600160a01b0390911681526020016100d2565b610111610154366004610685565b610220565b60025461012e906001600160a01b031681565b6101116102c3565b60005461010090046001600160a01b031661012e565b6101926102cb565b6040516100d291906106ef565b60408051808201909152600381526245415360e81b6020820152610192565b6101116101cc366004610685565b6102da565b6001546001600160a01b031633146101fc57604051631f492dbf60e21b815260040160405180910390fd5b61020783838361031d565b505050565b610214610388565b61021e60006103bb565b565b610228610388565b6001600160a01b03811661024f5760405163d92e233d60e01b815260040160405180910390fd5b6001546001600160a01b0316156102795760405163e0f2d7b160e01b815260040160405180910390fd5b600180546001600160a01b0319166001600160a01b0383169081179091556040517f3bfb4bbf112628248058745a3c57e35b13369386e474b8e56c552f3063a4a19690600090a250565b61021e610414565b60606102d5610470565b905090565b6102e2610388565b6001600160a01b03811661031157604051631e4fbdf760e01b8152600060048201526024015b60405180910390fd5b61031a816103bb565b50565b600061032b828401846105d0565b60008181526003602052604090205490915060ff161561035e57604051633440c93360e21b815260040160405180910390fd5b6000818152600360205260409020805460ff1916600117905561038284848461047b565b50505050565b6000546001600160a01b0361010090910416331461021e5760405163118cdaa760e01b8152336004820152602401610308565b600080546001600160a01b03838116610100818102610100600160a81b0319851617855560405193049190911692909183917f8be0079c531659141344cd1fd0a4f28419497f9722a3daafe3b4186f6b6457e091a35050565b61041c61055e565b6000610426610470565b90506000808280602001905181019061043f9190610702565b9150915061044c826103bb565b600280546001600160a01b0319166001600160a01b03929092169190911790555050565b60606102d53061056f565b60025460405163e2b2408560e01b81526001600160a01b039091169063e2b24085906104af90869086908690600401610765565b602060405180830381865afa1580156104cc573d6000803e3d6000fd5b505050506040513d601f19601f820116820180604052508101906104f09190610793565b61050d57604051634715494560e01b815260040160405180910390fd5b6001546040516001600160a01b03918216918516907fc013b39287cb7a53f776482ac9573829321f002f31ef8782129b41d60047bda09061055190869086906107b5565b60405180910390a3505050565b61056661059e565b61021e336103bb565b60405164ffffffffff602c19833b0116808252602090810190602d908301843c60408101815101604052919050565b60005460ff16156105c15760405162dc149f60e41b815260040160405180910390fd5b6000805460ff19166001179055565b6000602082840312156105e257600080fd5b5035919050565b6001600160a01b038116811461031a57600080fd5b60008060006040848603121561061357600080fd5b833561061e816105e9565b9250602084013567ffffffffffffffff81111561063a57600080fd5b8401601f8101861361064b57600080fd5b803567ffffffffffffffff81111561066257600080fd5b86602082840101111561067457600080fd5b939660209190910195509293505050565b60006020828403121561069757600080fd5b81356106a2816105e9565b9392505050565b6000815180845260005b818110156106cf576020818501810151868301820152016106b3565b506000602082860101526020601f19601f83011685010191505092915050565b6020815260006106a260208301846106a9565b6000806040838503121561071557600080fd5b8251610720816105e9565b6020840151909250610731816105e9565b809150509250929050565b81835281816020850137506000828201602090810191909152601f909101601f19169091010190565b6001600160a01b038416815260406020820181905260009061078a908301848661073c565b95945050505050565b6000602082840312156107a557600080fd5b815180151581146106a257600080fd5b6020815260006107c960208301848661073c565b94935050505056fea264697066735822122021bdc807bdb24efe7ff0c561ba377150106409769d6ba51bbcbb8671c325391364736f6c634300081c0033",
  "linkReferences": {},
  "deployedLinkReferences": {}
}